:020000040800F2
:100000004808002045010008790600087B06000822
:100010007F0600088306000887060008000000002D
:100020000000000000000000000000008B06000837
:100030008D060008000000008F06000891060008E9
:100040005F0100085F0100085F0100085F01000810
:100050005F0100085F010008990600085F010008C1
:100060005F0100085F0100085F0100085F010008F0
:100070005F0100085F0100085F0100085F010008E0
:100080005F0100085F0100085F0100085F010008D0
:100090005F0100085F0100085F0100085F010008C0
:1000A0005F0100085F0100085F0100085F010008B0
:1000B0005F0100085F0100085F0100085F010008A0
:1000C0005F0100085F0100085F0100085F01000890
:1000D0005F010008510700085F0100085F01000888
:1000E000F10600085F0100085F0100085F010008D9
:1000F0005F0100085F0100085F0100085F01000860
:100100005F0100085F0100085F0100085F0100084F
:100110005F0100085F0100085F0100085F0100083F
:100120005F0100085F0100085F0100085F0100082F
:10013000DFF80CD001F008FD00480047E903000893
:10014000480800200648804706480047FEE7FEE7CB
:10015000FEE7FEE7FEE7FEE7FEE7FEE7FEE7FEE777
:100160008B080008310100080160828000230381B0
:10017000C380704701460889CA88904204DB088919
:10018000CA88801A80B2704788880A891044CA8851
:10019000801A80B2F7E700B503461846FFF7EAFF7A
:1001A0009988491E884201D1012000BD0020FCE74A
:1001B00030B504460D462046FFF7EDFF50B92189C2
:1001C000481C2081206845542089A188884201D19B
:1001D0000020208130BD10B5034600241846FFF7EB
:1001E000C9FF50B1D988481CD8801868445CD888A9
:1001F0009988884201D10020D880204610BD014650
:10020000C8880A89904201D1012070470020FCE78C
:100210000189C1807047000030B53149B1F1807F5C
:1002200000D31DE021F07F40401E4FF0E0225061DE
:1002300050170F22002807DA13071D0E294B00F074
:100240000F04241F1D5503E013071C0E264B1C54DE
:1002500000BF00204FF0E02290610720106100BF36
:1002600030BD30B5214BD3E90053291843F10002CA
:1002700000BF1E4BD3E90043641A9341F9D330BD4C
:10028000F0B54FF0E02080691549491E081A482151
:10029000B0FBF1F00021154A4FF47A7518CAA3FBA0
:1002A000052704FB057403FB014380185941F0BD89
:1002B00070B50446FFF7E4FF051941F1000600BFE1
:1002C000FFF7DEFF401BB141FAD370BD0748D0E90C
:1002D00000305A1C40F100000449C1E90020704779
:1002E0004019010018ED00E000E400E000000020EB
:1002F00008B501211D2000F00BFF0120ADF8000022
:1003000003208DF8020010208DF803006946424852
:1003100000F042FC0120ADF8000003208DF802003F
:1003200004208DF8030069463C4800F035FC0021AC
:10033000084600F047FD4FF40050ADF80000694654
:10034000374800F029FC0D21022000F03BFD182069
:10035000ADF8000003208DF8020010208DF8030096
:1003600069462F4800F018FC4FF40050ADF800002B
:1003700004208DF803006946294800F00DFC08BDF3
:100380001CB542F20100009000208DF804000C2002
:100390008DF8050001208DF80600684600F098FFF2
:1003A0001CBD08B54FF4407000F016FF06208DF814
:1003B000000000208DF801008DF8020001208DF86A
:1003C0000300684600F00DFF28208DF80000012092
:1003D0008DF8010000208DF8020001208DF8030047
:1003E000684600F0FEFE08BD0C210EA001F0DEFB09
:1003F000FFF77EFFFFF710FF00F007FB0AE000F0B9
:100400008FF8044621460AA001F0D0FB4FF47A7021
:10041000FFF727FFF3E70000000C01400008014050
:1004200000100140737472756374203D20256400D0
:100430004465766963652049443A307825780D0A29
:100440000000000008B50121052000F061FE102029
:10045000ADF8000003208DF8020010208DF8030095
:1004600069462B4800F098FBA020ADF8000003205F
:100470008DF8020018208DF803006946244800F02A
:100480008BFB4020ADF8000003208DF80200042013
:100490008DF8030069461E4800F07EFB08BD00B5DC
:1004A00085B01820ADF80C000120ADF8080002203E
:1004B000ADF806005520ADF810000020ADF804009E
:1004C000ADF80000ADF80E004FF48270ADF80200F8
:1004D0004FF40070ADF80A0069460E4800F09EFF28
:1004E00001210C4801F03FF805B000BD10B50446ED
:1004F0002146084801F068F800BF0121054801F0D5
:10050000B6F80028F9D0034801F060F8C0B210BD79
:10051000000801400030014010B5FFF7C0FF10BDDA
:1005200010B500221021534800F0E7FB9020FFF7A0
:10053000DDFFFF20FFF7DAFFFF20FFF7D7FFFF20E7
:10054000FFF7D4FF012210214A4800F0D6FB2046D5
:1005500010BD10B500221021464800F0CEFB9020BF
:10056000FFF7C4FF0020FFF7C1FF0020FFF7BEFF29
:100570000020FFF7BBFFFF20FFF7B8FF012210218B
:100580003C4800F0BAFB204610BD10B500221021F7
:10059000384800F0B2FB9F20FFF7A8FFFF20FFF7CD
:1005A000A5FF01221021334800F0A7FBE0B210BDE7
:1005B00010B5002210212F4800F09FFB0620FFF706
:1005C00095FF012210212B4800F097FB10BD10B5BC
:1005D00000221021274800F090FB0420FFF786FF3F
:1005E00001221021234800F088FB10BD10B5002225
:1005F0001021204800F081FB0520FFF777FFFF2046
:10060000FFF774FF0446012210211A4800F075FB21
:10061000204610BD70B505460C4600221021154835
:1006200000F06BFB0120FFF761FF2846FFF75EFF3C
:100630002046FFF75BFF012210210E4800F05DFB12
:10064000304670BD70B505460C46002210210948A1
:1006500000F053FB0120FFF749FF2846FFF746FF54
:100660002046FFF743FF01221021024800F045FB1E
:10067000304670BD00080140704700BFFEE700BF74
:10068000FEE700BFFEE700BFFEE770477047704718
:1006900010B5FFF71BFE10BD10B5012000F07EFE67
:1006A000012824D101213D4800F009FBE0B90520D3
:1006B000FFF7D7FD0121394800F001FBA0B9012166
:1006C000374800F009FB08B9012000E0002004468B
:1006D00022460121324800F010FB00BF01212F48C3
:1006E00000F0EDFA0028F9D0012000F068FE10BDFE
:1006F00010B54FF4005000F051FE012827D14103FE
:10070000284800F0DCFAF0B90520FFF7AAFD4FF405
:100710000051244800F0D3FAA8B90821214800F07C
:10072000DBFA08B9012000E0002004462246082137
:100730001C4800F0E2FA00BF4FF40051194800F0E5
:10074000BEFA0028F8D04FF4005000F038FE10BD7B
:1007500070B540F22661144801F080F9012806D1F5
:1007600000F083F940F226610F4801F0A1F940F250
:1007700025510D4801F072F901280ED10A4801F007
:10078000EDF8C4B200F097F905462146FFF710FDD9
:1007900040F22551044801F08BF970BD000801407A
:1007A000000C014000100140003801400CB5002051
:1007B000019000906C48006840F480306A490860FD
:1007C00000BF6948006800F4003000900198401CA8
:1007D0000190009818B90198B0F5A06FF1D1624866
:1007E000006800F4003010B10120009001E000200A
:1007F00000900098012843D15C48006840F0100048
:100800005A4908600846006820F00300086008465E
:10081000006840F002000860534840685249486050
:100820000846406848600846406840F48060486078
:100830000846406820F47C1048600846406840F450
:10084000E81048600846006840F08070086000BF0B
:100850004548006800F000700028F9D04248406820
:1008600020F00300404948600846406840F002001C
:10087000486000BF3C48406800F00C000828F9D1EF
:100880000CBD10B5FFF792FF10BD10B536480068DB
:1008900040F0010034490860084640683449084087
:1008A0003149486008460068324908402E490860CE
:1008B0000846006820F4802008600846406820F45C
:1008C000FE0048604FF41F008860FFF7DAFF4FF02A
:1008D00000602949086010BD10B5002100200022E9
:1008E000214B5B6803F00C0121B1042906D00829D3
:1008F00028D107E0214B224C236027E01F4B204CDE
:10090000236023E0184B5B6803F47010164B5B68A0
:1009100003F48032022303EB904022B9194B434386
:10092000174C23600DE0104B5B6803F4003323B1D8
:10093000144B4343124C236003E0104B4343104CD1
:10094000236003E00D4B0E4C236000BF00BF064B3D
:100950005B68C3F303130C4CE15C094B1B68CB4091
:10096000074C236010BD0000001002400020024030
:100970000000FFF8FFFFF6FE08ED00E000127A002D
:100980000800002000093D000C00002001214B4A16
:1009900011704B4908707047484800787047002034
:1009A0004649087046480078704708B5012144F26E
:1009B000050000F0ADFB4FF40070ADF8000003201F
:1009C0008DF8020018208DF8030069463D4800F0BC
:1009D000E3F84FF48060ADF8000004208DF80300C8
:1009E0006946384800F0D8F808BD08B525208DF8CC
:1009F000000000208DF801008DF8020001208DF824
:100A00000300684600F0EDFB08BD1FB5FFF7CDFF02
:100A10004FF4E13000900020ADF80C000C20ADF850
:100A20000A000020ADF80800ADF80600ADF804009B
:100A30006946254800F095FE0121234800F01DFF7E
:100A4000012240F22661204800F023FF012240F2FB
:100A500025511D4800F01DFFFFF7C7FF4FF48062CE
:100A60001A491B48FFF780FB1FBD00201949087079
:100A7000704710B5044600BF164800780128FBD027
:100A80002146114800F066FF01201249087010BD90
:100A900010B5044600BF2078FFF7EBFF14F8011BE8
:100AA0000029F8D110BD70B504460D46E0B2FFF73D
:100AB000E0FF204670BD0648704700001D00002082
:100AC0001E000020000801400038014044000020C2
:100AD000380000201C00002010B50446CC48844299
:100AE00008D10121042000F02DFB0021042000F09A
:100AF00029FB46E0C748844208D10121082000F0C4
:100B000021FB0021082000F01DFB3AE0C24884428E
:100B100008D10121102000F015FB0021102000F069
:100B200011FB2EE0BD48844208D10121202000F0B5
:100B300009FB0021202000F005FB22E0B848844298
:100B400008D10121402000F0FDFA0021402000F0F2
:100B5000F9FA16E0B348844208D10121802000F060
:100B6000F1FA0021802000F0EDFA0AE0AE4884425C
:100B700007D10121801500F0E5FA0021A01500F051
:100B8000E1FA10BD10B50121084600F0DBFA0021A2
:100B9000012000F0D7FA10BD2DE9F04102460025F2
:100BA0000026002000230024002791F803C00CF049
:100BB0000F0591F803C00CF0100CBCF1000F03D02E
:100BC00091F802C04CEA050591F800C0BCF1000F95
:100BD00031D0146800202BE04FF0010C0CFA00F328
:100BE000B1F800C00CEA03069E4220D183004FF00A
:100BF0000F0C0CFA03F7BC4305FA03FC4CEA04049F
:100C000091F803C0BCF1280F06D14FF0010C0CFA8B
:100C100000FCC2F814C00AE091F803C0BCF1480F10
:100C200005D14FF0010C0CFA00FCC2F810C0401CBA
:100C30000828D1D31460B1F800C0BCF1FF0F34DD37
:100C4000546800202EE000F1080C4FF0010808FA6B
:100C50000CF3B1F800C00CEA03069E4221D18300D8
:100C60004FF00F0C0CFA03F7BC4305FA03FC4CEAF7
:100C7000040491F803C0BCF1280F05D100F1080C61
:100C800008FA0CF8C2F8148091F803C0BCF1480FC0
:100C900007D100F1080C4FF0010808FA0CF8C2F86F
:100CA0001080401C0828CED35460BDE8F0814FF678
:100CB000FF710180022181700421C17070470246DA
:100CC000002093680B400BB1012000E0002070472A
:100CD0000146886880B2704702460020D3680B4006
:100CE0000BB1012000E0002070470146C86880B2C7
:100CF000704701617047416170470AB1016100E0CE
:100D000041617047C16070474FF480320A4382618D
:100D10008161826182698269704702460020434B8B
:100D200018684FF68073184040EA021008433F4BA2
:100D3000186070473E49C8617047F0B50A46002305
:100D400000240021002500F00046B6F1004F02D13A
:100D5000364EF16901E0354E7168C0F3034583B248
:100D600000F44016B6F5401F08D121F070612F4EF7
:100D7000766826F070662D4F7E6012E000F48016D3
:100D8000B6F5801F06D1032606FA05F4A14341F00B
:100D9000706106E0460D360103FA06F6B14341F0F4
:100DA000706122B1460D360103FA06F6314300F0B8
:100DB0000046B6F1004F02D11C4EF16101E01B4E1E
:100DC0007160F0BD30B500228B071C0F0F2303FAB2
:100DD00004F2164B08338C1053F824309343134C11
:100DE00008348D1044F8253023468C1053F82430F5
:100DF0008C07240F00FA04F423430C4C08348D10A4
:100E000044F8253030BD0A49DC31086070470000E5
:100E100000080140000C0140001001400014014096
:100E200000180140001C014000200140000001406A
:100E300000002042DF48006840F00100DD49086002
:100E400008464068DC490840DA49486008460068BE
:100E5000DA490840D74908600846006820F4802035
:100E600008600846406820F4FE0048604FF41F0008
:100E700088607047CF49096821F48031CD4A1160FC
:100E80001146096821F480211160B0F5803F03D03C
:100E9000B0F5802F0ED106E0C649096841F48031D3
:100EA000C44A116007E0C349096841F4A021C14A5E
:100EB000116000E000BF00BF704710B5014600227E
:100EC000002300204A11012A02D1BA4C236806E00F
:100ED000022A02D1B74C236A01E0B64C636A01F0E2
:100EE0001F02012494401C400CB1012000E00020AE
:100EF00010BD38B5002000900024002500BF31202F
:100F0000FFF7DBFF05460098401C00900098B0F505
:100F1000A06F01D0002DF2D03120FFF7CEFF08B135
:100F2000012400E00024204638BD01460020A14AEB
:100F3000106820F0F80040EAC10010607047A04936
:100F400008607047024600209A4B586820F47C10D5
:100F500042EA01031843974B586070479849086666
:100F6000704701460020934A506820F00300084370
:100F7000506070478F48406800F00C007047014691
:100F800000208C4A506820F0F00008435060704701
:100F900001460020874A506820F4E0600843506012
:100FA000704701460020834A506820F4605040EAB0
:100FB000C1005060704729B17E4A527A02437D4B8E
:100FC0005A7204E07B4A527A82437A4B5A727047D3
:100FD0007B49D8310860704701460020754A506847
:100FE00020F440400843506070470021714A20328D
:100FF0001170704A82F82010012802D004280AD10A
:1010000004E001216B4A2032117005E00521694A94
:101010002032117000E000BF00BF704769490860CE
:1010200070476449096A0143624A11627047654921
:1010300044390860704730B50021002200240023A5
:101040005C4D6D6805F00C0121B1042905D008291B
:1010500023D105E05C4D056022E05B4D05601FE09B
:10106000544D6D6805F47012524D6D6805F480346E
:10107000022505EB92421CB9544D554305600BE027
:101080004C4D6D6805F400351DB1504D554305605C
:1010900002E04D4D5543056002E04B4D056000BF39
:1010A00000BF444D6D6805F0F0010909484D6B5CC7
:1010B0000568DD4045603F4D6D6805F4E061090A53
:1010C000434D6B5C4568DD4085603A4D6D6805F4C5
:1010D0006051C90A3E4D6B5C4568DD40C560354DC9
:1010E0006D6805F44041890B3A4D6B5CC568B5FBF2
:1010F000F3F5056130BD29B12E4A526902432D4BEB
:101100005A6104E02B4A526982432A4B5A61704764
:1011100029B1284A92690243264B9A6104E0254A84
:1011200092698243234B9A61704729B1214AD2695F
:101130000243204BDA6104E01E4AD26982431D4B10
:10114000DA61704729B11B4AD2680243194BDA6051
:1011500004E0184AD2688243164BDA60704729B11E
:10116000144A12690243134B1A6104E0114A1269CE
:101170008243104B1A61704712494039086070472A
:101180000F49C86470470B49C87170470948406AE5
:1011900040F0807007494862704701460020054AC8
:1011A00092680A400AB1012000E00020704701491E
:1011B00088727047001002400000FFF8FFFFF6FE43
:1011C000000042428004424200127A0000093D00C1
:1011D0001F0000202F00002031490143314A1160D7
:1011E000704770B5002100230F22C47804B32D4C42
:1011F000246804F4E064C4F5E064210AC1F1040346
:10120000CA40447804FA03F1847814402143090168
:10121000254C0678A155047804F01F050124AC4044
:1012200005786D11AD0005F1E025C5F8004109E034
:10123000047804F01F050124AC401C4D067876119B
:1012400045F8264070BD1A4A0A400243154B1B1F41
:101250001A60704739B1134A121D12680243114BCC
:101260001B1D1A6006E00F4A121D126882430D4BC7
:101270001B1D1A607047042808D14FF0E02109694E
:1012800041F004014FF0E022116107E04FF0E0214E
:10129000096921F004014FF0E0221161704700005C
:1012A0000000FA050CED00E000E400E080E100E061
:1012B00080FFFF1F002044490860091D0860091DC8
:1012C0000860091D086041483F49143108607047B3
:1012D00000213D498279002A3AD00A461268036803
:1012E0009A430B461A600A1D126803689A430B1D45
:1012F0001A60027911440A6803681A430A60324A84
:101300000832126803689A432F4B08331A601A1D7B
:10131000126803689A432C4B0C331A604279102AE6
:101320000ED11A1F126803681A43274B08331A603C
:101330001A1D126803681A43234B0C331A600DE020
:101340002149427911440A6803681A430A6005E09A
:10135000027911440A6803689A430A6070470021C1
:10136000016001710C2141710021817170471649A2
:10137000103109680143144A103211607047014668
:101380000020114A143212680A400AB1012000E01C
:10139000002070470C491431086070470146002056
:1013A0000022094B1B6803EA0102074B14331B6838
:1013B0000B4013B10AB1012000E000207047024940
:1013C000143108607047000000040140FFFF0F0067
:1013D00010B50446BE48844208D101218014FFF7AD
:1013E000B1FE0021A014FFF7ADFE16E0B94884421B
:1013F00008D101210014FFF7B2FE00212014FFF7ED
:10140000AEFE0AE0B448844207D10121C013FFF7C1
:10141000A6FE0021E013FFF7A2FE10BD10B50022CA
:10142000028802F441520B884C8823438C88234362
:10143000CC8823430C8923434C8923438C89234341
:10144000CC8923431A430280838B4FF2FF742340DD
:1014500083830B8A038210BD2DE9F04F85B00546CA
:101460000C464FF0000902274FF000084FF0010B27
:101470000026B246A88B4FF240010840A883022004
:101480002884B5F81C90A068022801D100BF38E07C
:10149000A08810B94FF0010B01E04FF0020B8D480E
:1014A000854200D100E000BF6846FFF7C4FDDDF8CB
:1014B00000A0E088B0F5007F0AD14FEA1A2000EBC7
:1014C00080004000A168B0FBF1F0401D86B20BE047
:1014D0004FEA4B10BAFBF0F000EB80004000A1682F
:1014E000B0FBF1F0401D86B20A20B6FBF0F606F024
:1014F0000108A6EB0800C0F34F074FF6FF7000EAA3
:101500000828022F01DBFF2F02DD02274FF0000821
:10151000E08840EA080038432884A088A18908436D
:10152000618808432188084340F4006040EA0909C3
:10153000A5F81C9005B0BDE8F08F00210180418026
:101540008180C180018141818181C1810721018226
:1015500070470021018041808180C180022181602B
:1015600000218181704721B1028842F0400202804F
:1015700004E002884FF6BF731A400280704721B121
:10158000828B42F48062828304E0828B4FF6FF33C9
:101590001A408283704730B5002400230C110125C6
:1015A000A540ABB21AB185881D43858002E08588CD
:1015B0009D43858030BD1AB183880B43838002E050
:1015C00083888B4383807047818170470146888977
:1015D00070474FF6FF62914204D0028842F4807255
:1015E000028004E002884FF6FF631A4002807047D1
:1015F00021B1828842F00402828004E082884FF6A2
:10160000FB731A408280704702884FF2FF731A40C2
:10161000028002880A4302807047018841F48051A9
:101620000180704721B1028842F40052028004E038
:1016300002884DF6FF731A40028070470246002070
:10164000012901D0108B00E0908A70470146088A7A
:101650007047B1F5804F04D1028842F48042028085
:1016600004E002884BF6FF731A400280704702467E
:10167000002013890B400BB1012000E000207047CF
:10168000CA4302817047F0B50246002000240023BF
:10169000002501F00F070126BE40B4B20B11012650
:1016A0009E40B3B2968806EA03051689264016B115
:1016B0000DB1012000E00020F0BD10B5002201F0C6
:1016C0000F040123A3409AB2D343038110BD00004D
:1016D0000030014000380040003C004010B5044696
:1016E000FB48844209D101218803FFF72BFD00212B
:1016F0004FF48040FFF726FD32E0F648844209D1DE
:1017000001214804FFF72BFD00214FF40030FFF7C3
:1017100026FD25E0F048844209D101218804FFF725
:101720001EFD00214FF48020FFF719FD18E0EB4863
:10173000844209D10121C804FFF711FD00214FF4B3
:101740000020FFF70CFD0BE0E548844208D10121A1
:101750000805FFF704FD00214FF48010FFF7FFFCA0
:1017600010BD2DE9F04786B005460E460024A2467E
:1017700000BFA1460027B08900B100BF2F462C8AC8
:101780004CF6FF700440F08804432C82AC894EF67E
:10179000F3100440B0883189084371890843044339
:1017A000AC81AC8A4FF6FF400440B0890443AC8260
:1017B00001A8FFF740FCC648874202D1DDF810A01F
:1017C00001E0DDF80CA0A88900F4004040B10AEB6C
:1017D000CA0000EB0A1031684900B0FBF1F807E0DD
:1017E0000AEBCA0000EB0A1031688900B0FBF1F87F
:1017F0006420B8FBF0F004012009642101FB10898A
:10180000A88900F4004040B1322000EBC900B0FBD1
:10181000F1F000F00700044308E0322000EB09106B
:101820006421B0FBF1F000F00F0004432C8106B0FE
:10183000BDE8F0874FF41651016000218180C1801E
:1018400001810C21418100218181704710B5024640
:101850000020108A4FF2FF0318400B884C88234366
:101860008C882343CC8823431843108210BD002169
:10187000018041808180C180704721B1828942F41A
:101880000052828104E082894DF6FF731A40828102
:101890007047F0B50346002400260025002040F6DE
:1018A0006A17B94200D100BF1846C1F3421401F0D3
:1018B0001F06012707FA06F5012C01D10C3004E0C0
:1018C000022C01D1103000E014301AB107682F4308
:1018D000076002E00768AF430760F0BD1AB1838A72
:1018E0000B43838202E0838A8B4383827047028AA0
:1018F0004FF6F0731A400282028A0A43028270474E
:1019000082894FF2FF731A40828182890A43828161
:10191000704721B1828942F00202828104E082890B
:101920004FF6FD731A4082817047028A4FF6DF73CB
:101930001A400282028A0A430282704721B1028A57
:1019400042F48042028204E0028A4BF6FF731A409E
:1019500002827047C1F3080282807047014688887E
:10196000C0F308007047818941F00101818170470F
:10197000028BD2B20283028B42EA012202837047B9
:10198000028B02F47F420283028B0A430283704778
:1019900021B1828A42F02002828204E0828A4FF6DC
:1019A000DF731A408282704721B1828A42F01002AE
:1019B000828204E0828A4FF6EF731A408282704777
:1019C00021B1828A42F00802828204E0828A4FF6C4
:1019D000F7731A408282704721B1828942F4004233
:1019E000828103E08289C2F30E028281704721B1B5
:1019F000828A42F40062828204E0828A4FF2FF739C
:101A00001A4082827047828A4FF6FB731A408282A4
:101A1000828A0A438282704721B1828A42F002029E
:101A2000828204E0828A4FF6FD731A4082827047F8
:101A300002460020B1F5007F00D100BF13880B40A3
:101A40000BB1012000E00020704701F40072B2F5F4
:101A5000007F00D100BFCA430280704770B50246C4
:101A6000002400230025002040F66A16B14200D170
:101A700000BFC1F3421501F01F03012606FA03F36C
:101A8000012D02D19689334006E0022D02D1168A3B
:101A9000334001E0968A33400C12012606FA04F422
:101AA0001688344013B10CB1012000E0002070BD55
:101AB00010B50022002340F66A14A14200D100BFF5
:101AC0000A1201249440A3B2DC43048010BD00003C
:101AD000003801400044004000480040004C0040F5
:101AE000005000402DE9F05F0546002092469B46DD
:101AF00088460646814640241BE028464146474624
:101B0000224600F042F853465A46C01A914110D37B
:101B100011461846224600F029F82D1A67EB0108F5
:101B20004F4622460120002100F020F817EB000963
:101B30004E41201EA4F10104DFDC484631462A460E
:101B40004346BDE8F09F0000064C074D06E0E06804
:101B500040F0010394E8070098471034AC42F6D3F4
:101B6000FEF7EAFAAC1E0008CC1E0008202A04DBAF
:101B7000203A00FA02F1002070479140C2F12003A0
:101B800020FA03F3194390407047202A04DB203ADF
:101B900021FA02F00021704721FA02F3D040C2F18D
:101BA0002002914008431946704700000FB4054BCE
:101BB00010B503A9044A029800F018F810BC5DF8AB
:101BC00014FB0000A70A00083400002002E008C847
:101BD000121F08C1002AFAD170477047002001E0A7
:101BE00001C1121F002AFBD1704700002DE9FF4FF1
:101BF0008DB09B460F460446002606E025280BD0F4
:101C00005A460F999047641C761C20780028F5D11D
:101C100011B03046BDE8F08F0025A8460122984952
:101C200000E0054314F8013F203B02FA03F00842AC
:101C3000F7D120782E2817D114F8010F45F00405AC
:101C40002A280ED06FF02F022078A0F13001092948
:101C50000AD808EB880102EB410100EB0108641C83
:101C6000F2E757F8048B641C20786C280DD004DC54
:101C70004C2812D06A2811D104E074280DD07A289B
:101C80000CD10AE045F4001507E0617845F48015B1
:101C9000814202D1641C05F58015641C2278692AF2
:101CA00045D008DC002AB3D0582A69D0632A10D066
:101CB000642A08D13BE0702A67D0732A13D0752AB2
:101CC0005CD0782A5CD010465A460F999047761C13
:101CD000D3E017F8040B8DF8000000208DF8010008
:101CE000E946012003E057F8049B4FF0FF306907F5
:101CF0004FF0000501D40AE06D1C45450DDA854220
:101D0000FADB19F805100029F6D106E06D1C8542B2
:101D1000FCDB19F805100029F8D12E4404E019F86D
:101D2000010B5A460F9990476D1EF8D2A5E00A2084
:101D30000021CDE90801C5F3025002280DD001CFE2
:101D4000C117031E71F100030DDA4FF0000CD0EB48
:101D50000C006CEB01012D2308E0FF1D27F00707A5
:101D6000F7E80201EDE72B0504D52B238DF8283089
:101D700001233BE0EB0739D02023F7E70A2000E0FE
:101D800010200021CDE9080107E01020002145F0D6
:101D90000405CDE908014FF00808C5F302500228F8
:101DA0000FD001CF00214FF0000A2B071FD5702A5A
:101DB0000DD0DDE908C38CF0100C5CEA030C0CD0EC
:101DC00015E0FF1D27F00707F7E80201EBE74022C7
:101DD0008DF828204FF0010A0BE050EA010306D0ED
:101DE00030238DF828308DF8292002239A46582A6E
:101DF00004D024A20DF120090B9209E026A2F9E7F4
:101E0000DDE90823FFF76EFE0B9B9B5C09F8013DA3
:101E100050EA0102F4D1ADEB0900203008906807C8
:101E200001D44FF001080899884502DDA8EB0100B4
:101E300000E000208046002506E00AA85A46405DE2
:101E40000F9990476D1C761C5545F6DB04E0302059
:101E50005A460F999047761CB8F10001A8F1010885
:101E6000F5DC05E019F8010B5A460F999047761CEE
:101E70000899481E08900029F4DC641CC5E600009F
:101E80000928010030313233343536373839616250
:101E90006364656600000000303132333435363714
:101EA000383941424344454600000000CC1E00083A
:101EB0000000002038000000CC1B0008041F0008B0
:101EC0003800002010080000DC1B000800000000A3
:101ED0000000000000A24A04000000000000000012
:101EE00001020304060708090000000000000001C9
:101EF000020304010203040607080902040608009D
:041F000000000000DD
:0400000508000131BD
:00000001FF
